{
  "_format": "hh-sol-artifact-1",
  "contractName": "SpinGame",
  "sourceName": "contracts/SpinGame.sol",
  "abi": [
    {
      "inputs": [
        {
          "internalType": "contract VRFV2WrapperInterface",
          "name": "_vrfWrapper",
          "type": "address"
        },
        {
          "internalType": "contract VRFCoordinatorV2Interface",
          "name": "_vrfCoordinator",
          "type": "address"
        },
        {
          "internalType": "contract LinkTokenInterface",
          "name": "link",
          "type": "address"
        },
        {
          "internalType": "uint32",
          "name": "_callbackGasLimit",
          "type": "uint32"
        },
        {
          "internalType": "uint16",
          "name": "_requestConfirmations",
          "type": "uint16"
        },
        {
          "internalType": "uint64",
          "name": "_subscriptionId",
          "type": "uint64"
        },
        {
          "internalType": "bytes32",
          "name": "_keyHash",
          "type": "bytes32"
        },
        {
          "internalType": "bool",
          "name": "_useSubscription",
          "type": "bool"
        }
      ],
      "stateMutability": "nonpayable",
      "type": "constructor"
    },
    {
      "inputs": [
        {
          "internalType": "address",
          "name": "have",
          "type": "address"
        },
        {
          "internalType": "contract VRFCoordinatorV2Interface",
          "name": "want",
          "type": "address"
        }
      ],
      "name": "OnlyCoordinatorCanFulfill",
      "type": "error"
    },
    {
      "anonymous": false,
      "inputs": [
        {
          "indexed": true,
          "internalType": "address",
          "name": "previousOwner",
          "type": "address"
        },
        {
          "indexed": true,
          "internalType": "address",
          "name": "newOwner",
          "type": "address"
        }
      ],
      "name": "OwnershipTransferred",
      "type": "event"
    },
    {
      "anonymous": false,
      "inputs": [
        {
          "indexed": true,
          "internalType": "uint256",
          "name": "requestId",
          "type": "uint256"
        }
      ],
      "name": "SpinRequested",
      "type": "event"
    },
    {
      "anonymous": false,
      "inputs": [
        {
          "indexed": true,
          "internalType": "uint256",
          "name": "requestId",
          "type": "uint256"
        },
        {
          "indexed": false,
          "internalType": "uint256",
          "name": "result",
          "type": "uint256"
        }
      ],
      "name": "SpinSucceeded",
      "type": "event"
    },
    {
      "inputs": [],
      "name": "LINK",
      "outputs": [
        {
          "internalType": "contract LinkTokenInterface",
          "name": "",
          "type": "address"
        }
      ],
      "stateMutability": "view",
      "type": "function"
    },
    {
      "inputs": [
        {
          "internalType": "address",
          "name": "_toAdd",
          "type": "address"
        }
      ],
      "name": "addAuthorized",
      "outputs": [],
      "stateMutability": "nonpayable",
      "type": "function"
    },
    {
      "inputs": [
        {
          "internalType": "address",
          "name": "",
          "type": "address"
        }
      ],
      "name": "authorized",
      "outputs": [
        {
          "internalType": "bool",
          "name": "",
          "type": "bool"
        }
      ],
      "stateMutability": "view",
      "type": "function"
    },
    {
      "inputs": [],
      "name": "callbackGasLimit",
      "outputs": [
        {
          "internalType": "uint32",
          "name": "",
          "type": "uint32"
        }
      ],
      "stateMutability": "view",
      "type": "function"
    },
    {
      "inputs": [],
      "name": "keyHash",
      "outputs": [
        {
          "internalType": "bytes32",
          "name": "",
          "type": "bytes32"
        }
      ],
      "stateMutability": "view",
      "type": "function"
    },
    {
      "inputs": [],
      "name": "maxRequestType",
      "outputs": [
        {
          "internalType": "uint256",
          "name": "",
          "type": "uint256"
        }
      ],
      "stateMutability": "view",
      "type": "function"
    },
    {
      "inputs": [],
      "name": "owner",
      "outputs": [
        {
          "internalType": "address",
          "name": "",
          "type": "address"
        }
      ],
      "stateMutability": "view",
      "type": "function"
    },
    {
      "inputs": [
        {
          "internalType": "uint256",
          "name": "requestId",
          "type": "uint256"
        },
        {
          "internalType": "uint256[]",
          "name": "randomWords",
          "type": "uint256[]"
        }
      ],
      "name": "rawFulfillRandomWords",
      "outputs": [],
      "stateMutability": "nonpayable",
      "type": "function"
    },
    {
      "inputs": [
        {
          "internalType": "address",
          "name": "_toRemove",
          "type": "address"
        }
      ],
      "name": "removeAuthorized",
      "outputs": [],
      "stateMutability": "nonpayable",
      "type": "function"
    },
    {
      "inputs": [],
      "name": "renounceOwnership",
      "outputs": [],
      "stateMutability": "nonpayable",
      "type": "function"
    },
    {
      "inputs": [],
      "name": "requestConfirmations",
      "outputs": [
        {
          "internalType": "uint16",
          "name": "",
          "type": "uint16"
        }
      ],
      "stateMutability": "view",
      "type": "function"
    },
    {
      "inputs": [
        {
          "internalType": "uint32",
          "name": "gas",
          "type": "uint32"
        },
        {
          "internalType": "uint16",
          "name": "confirmations",
          "type": "uint16"
        },
        {
          "internalType": "uint64",
          "name": "subscription",
          "type": "uint64"
        },
        {
          "internalType": "bytes32",
          "name": "key",
          "type": "bytes32"
        },
        {
          "internalType": "bool",
          "name": "subscribe",
          "type": "bool"
        }
      ],
      "name": "setVrfSettings",
      "outputs": [],
      "stateMutability": "nonpayable",
      "type": "function"
    },
    {
      "inputs": [],
      "name": "spin",
      "outputs": [
        {
          "internalType": "uint256",
          "name": "requestId",
          "type": "uint256"
        }
      ],
      "stateMutability": "nonpayable",
      "type": "function"
    },
    {
      "inputs": [],
      "name": "subscriptionId",
      "outputs": [
        {
          "internalType": "uint64",
          "name": "",
          "type": "uint64"
        }
      ],
      "stateMutability": "view",
      "type": "function"
    },
    {
      "inputs": [
        {
          "internalType": "address",
          "name": "newOwner",
          "type": "address"
        }
      ],
      "name": "transferOwnership",
      "outputs": [],
      "stateMutability": "nonpayable",
      "type": "function"
    },
    {
      "inputs": [],
      "name": "useSubscription",
      "outputs": [
        {
          "internalType": "bool",
          "name": "",
          "type": "bool"
        }
      ],
      "stateMutability": "view",
      "type": "function"
    },
    {
      "inputs": [],
      "name": "vrfCoordinator",
      "outputs": [
        {
          "internalType": "contract VRFCoordinatorV2Interface",
          "name": "",
          "type": "address"
        }
      ],
      "stateMutability": "view",
      "type": "function"
    },
    {
      "inputs": [
        {
          "internalType": "uint256",
          "name": "requestId",
          "type": "uint256"
        }
      ],
      "name": "vrfRequest",
      "outputs": [
        {
          "components": [
            {
              "internalType": "uint256",
              "name": "paid",
              "type": "uint256"
            },
            {
              "internalType": "uint256",
              "name": "randomWord",
              "type": "uint256"
            },
            {
              "internalType": "bool",
              "name": "fulfilled",
              "type": "bool"
            }
          ],
          "internalType": "struct SpinGame.RequestStatus",
          "name": "",
          "type": "tuple"
        }
      ],
      "stateMutability": "view",
      "type": "function"
    },
    {
      "inputs": [],
      "name": "vrfWrapper",
      "outputs": [
        {
          "internalType": "contract VRFV2WrapperInterface",
          "name": "",
          "type": "address"
        }
      ],
      "stateMutability": "view",
      "type": "function"
    },
    {
      "inputs": [
        {
          "internalType": "uint256",
          "name": "amount",
          "type": "uint256"
        }
      ],
      "name": "withdrawLink",
      "outputs": [],
      "stateMutability": "nonpayable",
      "type": "function"
    },
    {
      "inputs": [],
      "name": "withdrawLink",
      "outputs": [],
      "stateMutability": "nonpayable",
      "type": "function"
    }
  ],
  "bytecode": "0x60e06040523480156200001157600080fd5b50604051620015d7380380620015d783398101604081905262000034916200014e565b6200003f33620000cf565b6001600160a01b0397881660805295871660a0529390951660c05260058054600380546001600160401b0319166001600160401b039098169790971790965560049390935563ffffffff9190911665ffffffffffff199094169390931764010000000061ffff909416939093029290921760ff60301b191666010000000000009115159190910217905562000218565b600080546001600160a01b038381166001600160a01b0319831681178455604051919092169283917f8be0079c531659141344cd1fd0a4f28419497f9722a3daafe3b4186f6b6457e09190a35050565b6001600160a01b03811681146200013557600080fd5b50565b805180151581146200014957600080fd5b919050565b600080600080600080600080610100898b0312156200016c57600080fd5b885162000179816200011f565b60208a01519098506200018c816200011f565b60408a01519097506200019f816200011f565b60608a015190965063ffffffff81168114620001ba57600080fd5b60808a015190955061ffff81168114620001d357600080fd5b60a08a01519094506001600160401b0381168114620001f157600080fd5b60c08a015190935091506200020960e08a0162000138565b90509295985092959890939650565b60805160a05160c0516113506200028760003960008181610189015281816104870152818161056d0152610de50152600081816102790152818161038e015281816103d0015261102001526000818161023901528181610c9901528181610e0f0152610f3c01526113506000f3fe608060405234801561001057600080fd5b50600436106101375760003560e01c80638da5cb5b116100b8578063b91816111161007c578063b9181611146102d7578063c3bc9c6a1461030a578063cf1c316a14610341578063d5318a6714610354578063f0acd7d514610368578063f2fde38b1461037057600080fd5b80638da5cb5b1461025b5780638dc654a21461026c578063a3e56fa814610274578063a6ea383f1461029b578063b0fb162f146102ae57600080fd5b8063485d7d94116100ff578063485d7d94146101fd57806361728f3914610210578063715018a6146102195780637a8042bd1461022157806383bbf9421461023457600080fd5b806309c1ba2e1461013c578063188255a21461016e5780631b6b6d23146101845780631fe543e3146101c357806324f74697146101d8575b600080fd5b6003546101509067ffffffffffffffff1681565b60405167ffffffffffffffff90911681526020015b60405180910390f35b610176600181565b604051908152602001610165565b6101ab7f000000000000000000000000000000000000000000000000000000000000000081565b6040516001600160a01b039091168152602001610165565b6101d66101d1366004611096565b610383565b005b6005546101e89063ffffffff1681565b60405163ffffffff9091168152602001610165565b6101d661020b366004611160565b610410565b61017660045481565b6101d661044f565b6101d661022f366004611190565b610463565b6101ab7f000000000000000000000000000000000000000000000000000000000000000081565b6000546001600160a01b03166101ab565b6101d6610550565b6101ab7f000000000000000000000000000000000000000000000000000000000000000081565b6101d66102a93660046111b7565b6106b9565b6005546102c490640100000000900461ffff1681565b60405161ffff9091168152602001610165565b6102fa6102e5366004611160565b60016020526000908152604090205460ff1681565b6040519015158152602001610165565b61031d610318366004611190565b610734565b60408051825181526020808401519082015291810151151590820152606001610165565b6101d661034f366004611160565b610798565b6005546102fa90600160301b900460ff1681565b6101766107c7565b6101d661037e366004611160565b610883565b336001600160a01b037f000000000000000000000000000000000000000000000000000000000000000016146104025760405163073e64fd60e21b81523360048201526001600160a01b037f00000000000000000000000000000000000000000000000000000000000000001660248201526044015b60405180910390fd5b61040c82826108f9565b5050565b610418610a15565b6001600160a01b03811633141561042e57600080fd5b6001600160a01b03166000908152600160205260409020805460ff19169055565b610457610a15565b6104616000610a6f565b565b61046b610a15565b60405163a9059cbb60e01b8152336004820152602481018290527f00000000000000000000000000000000000000000000000000000000000000006001600160a01b03169063a9059cbb90604401602060405180830381600087803b1580156104d357600080fd5b505af11580156104e7573d6000803e3d6000fd5b505050506040513d601f19601f8201168201806040525081019061050b919061123c565b61054d5760405162461bcd60e51b81526020600482015260136024820152722ab730b13632903a37903a3930b739b332b91760691b60448201526064016103f9565b50565b610558610a15565b6040516370a0823160e01b81523060048201527f00000000000000000000000000000000000000000000000000000000000000006001600160a01b03169063a9059cbb90339083906370a082319060240160206040518083038186803b1580156105c157600080fd5b505afa1580156105d5573d6000803e3d6000fd5b505050506040513d601f19601f820116820180604052508101906105f99190611259565b6040516001600160e01b031960e085901b1681526001600160a01b0390921660048301526024820152604401602060405180830381600087803b15801561063f57600080fd5b505af1158015610653573d6000803e3d6000fd5b505050506040513d601f19601f82011682018060405250810190610677919061123c565b6104615760405162461bcd60e51b81526020600482015260136024820152722ab730b13632903a37903a3930b739b332b91760691b60448201526064016103f9565b6106c1610a15565b600580546003805467ffffffffffffffff90961667ffffffffffffffff19909616959095179094556004929092551515600160301b0266ff0000000000001961ffff9094166401000000000265ffffffffffff1990931663ffffffff909516949094179190911791909116919091179055565b61075a604051806060016040528060008152602001600081526020016000151581525090565b506000908152600260208181526040928390208351606081018552815481526001820154928101929092529091015460ff1615159181019190915290565b6107a0610a15565b6001600160a01b03166000908152600160208190526040909120805460ff19169091179055565b3360009081526001602052604081205460ff16806107fe5750336107f36000546001600160a01b031690565b6001600160a01b0316145b61084a5760405162461bcd60e51b815260206004820152601960248201527f43616c6c6572206973206e6f7420617574686f72697a65642e0000000000000060448201526064016103f9565b610852610abf565b60405190915081907f4799c2fbc351eb6844896d4dd3e5f28b685ef1c54ccccece6ba4770c4e11551390600090a290565b61088b610a15565b6001600160a01b0381166108f05760405162461bcd60e51b815260206004820152602660248201527f4f776e61626c653a206e6577206f776e657220697320746865207a65726f206160448201526564647265737360d01b60648201526084016103f9565b61054d81610a6f565b6000828152600260205260409020541580159061092957506000828152600260208190526040909120015460ff16155b61096e5760405162461bcd60e51b81526020600482015260166024820152752932b8bab2b9ba103737ba1030bb30b4b630b136329760511b60448201526064016103f9565b6000828152600260208190526040822001805460ff19166001179055815182919061099b5761099b611272565b60200260200101516002600084815260200190815260200160002060010181905550817f1fcbfff1c46db2eb0cc263d369f748a4d4ce829126606f723504669ec6a3fa6a826000815181106109f2576109f2611272565b6020026020010151604051610a0991815260200190565b60405180910390a25050565b6000546001600160a01b031633146104615760405162461bcd60e51b815260206004820181905260248201527f4f776e61626c653a2063616c6c6572206973206e6f7420746865206f776e657260448201526064016103f9565b600080546001600160a01b038381166001600160a01b0319831681178455604051919092169283917f8be0079c531659141344cd1fd0a4f28419497f9722a3daafe3b4186f6b6457e09190a35050565b600046617a691415610c3c57604080516060810182526001808252600060208084018281528486018381528380526002835294517fac33ff75c19e70fe83507db0d683fd3465c996598dc972688b7ace676c89077b55517fac33ff75c19e70fe83507db0d683fd3465c996598dc972688b7ace676c89077c5592517fac33ff75c19e70fe83507db0d683fd3465c996598dc972688b7ace676c89077d805460ff19169115159190911790558351828152808501909452928392909190828101908036833750508151604080514460208083019190915242828401528251808303840181526060909201909252805191012092935091905060005b82811015610c2857604080516020810184905244918101919091524260608201526080016040516020818303038152906040528051906020012060001c915081848281518110610c0b57610c0b611272565b6020908102919091010152610c21600182611288565b9050610bb9565b50610c3384846108f9565b50919392505050565b600554600160301b900460ff16610c5a57610c55610c62565b905090565b610c55610d60565b6000610c6c610dbb565b6040805160608101918290526005546310c1b4d560e21b90925263ffffffff9091166064820152909150807f00000000000000000000000000000000000000000000000000000000000000006001600160a01b0316634306d3546084830160206040518083038186803b158015610ce257600080fd5b505afa158015610cf6573d6000803e3d6000fd5b505050506040513d601f19601f82011682018060405250810190610d1a9190611259565b81526000602080830182905260409283018290528482526002808252918390208451815590840151600182015592909101519101805460ff191691151591909117905590565b6000610d6a610fcb565b60408051606081018252600180825260006020808401828152848601838152878452600292839052959092209351845590519183019190915591519101805460ff1916911515919091179055919050565b6005546040516310c1b4d560e21b815263ffffffff90911660048201526000906001600160a01b037f0000000000000000000000000000000000000000000000000000000000000000811691634000aea0917f00000000000000000000000000000000000000000000000000000000000000009190821690634306d3549060240160206040518083038186803b158015610e5457600080fd5b505afa158015610e68573d6000803e3d6000fd5b505050506040513d601f19601f82011682018060405250810190610e8c9190611259565b6005546040805163ffffffff8316602082015264010000000090920461ffff1690820152600160608201526080016040516020818303038152906040526040518463ffffffff1660e01b8152600401610ee7939291906112ae565b602060405180830381600087803b158015610f0157600080fd5b505af1158015610f15573d6000803e3d6000fd5b505050506040513d601f19601f82011682018060405250810190610f39919061123c565b507f00000000000000000000000000000000000000000000000000000000000000006001600160a01b031663fc2a88c36040518163ffffffff1660e01b815260040160206040518083038186803b158015610f9357600080fd5b505afa158015610fa7573d6000803e3d6000fd5b505050506040513d601f19601f82011682018060405250810190610c559190611259565b600480546003546005546040516305d3b1d360e41b81529384019290925267ffffffffffffffff166024830152640100000000810461ffff16604483015263ffffffff166064820152600160848201526000907f00000000000000000000000000000000000000000000000000000000000000006001600160a01b031690635d3b1d309060a401602060405180830381600087803b15801561106c57600080fd5b505af1158015610fa7573d6000803e3d6000fd5b634e487b7160e01b600052604160045260246000fd5b600080604083850312156110a957600080fd5b8235915060208084013567ffffffffffffffff808211156110c957600080fd5b818601915086601f8301126110dd57600080fd5b8135818111156110ef576110ef611080565b8060051b604051601f19603f8301168101818110858211171561111457611114611080565b60405291825284820192508381018501918983111561113257600080fd5b938501935b8285101561115057843584529385019392850192611137565b8096505050505050509250929050565b60006020828403121561117257600080fd5b81356001600160a01b038116811461118957600080fd5b9392505050565b6000602082840312156111a257600080fd5b5035919050565b801515811461054d57600080fd5b600080600080600060a086880312156111cf57600080fd5b853563ffffffff811681146111e357600080fd5b9450602086013561ffff811681146111fa57600080fd5b9350604086013567ffffffffffffffff8116811461121757600080fd5b925060608601359150608086013561122e816111a9565b809150509295509295909350565b60006020828403121561124e57600080fd5b8151611189816111a9565b60006020828403121561126b57600080fd5b5051919050565b634e487b7160e01b600052603260045260246000fd5b600082198211156112a957634e487b7160e01b600052601160045260246000fd5b500190565b60018060a01b038416815260006020848184015260606040840152835180606085015260005b818110156112f0578581018301518582016080015282016112d4565b81811115611302576000608083870101525b50601f01601f1916929092016080019594505050505056fea26469706673582212203721e132c40a8935a909223ba784af64273a5bd2079221ed239397efb668fe9764736f6c63430008090033",
  "linkReferences": {},
  "deployedLinkReferences": {}
}