{
  "_format": "hh-sol-artifact-1",
  "contractName": "SpinGameUnoptimized",
  "sourceName": "contracts/SpinGameUnoptimized.sol",
  "abi": [
    {
      "inputs": [
        {
          "internalType": "contract VRFV2WrapperInterface",
          "name": "_vrfWrapper",
          "type": "address"
        },
        {
          "internalType": "contract VRFCoordinatorV2Interface",
          "name": "_vrfCoordinator",
          "type": "address"
        },
        {
          "internalType": "contract LinkTokenInterface",
          "name": "link",
          "type": "address"
        },
        {
          "internalType": "uint32",
          "name": "_callbackGasLimit",
          "type": "uint32"
        },
        {
          "internalType": "uint16",
          "name": "_requestConfirmations",
          "type": "uint16"
        },
        {
          "internalType": "uint64",
          "name": "_subscriptionId",
          "type": "uint64"
        },
        {
          "internalType": "bytes32",
          "name": "_keyHash",
          "type": "bytes32"
        },
        {
          "internalType": "bool",
          "name": "_useSubscription",
          "type": "bool"
        }
      ],
      "stateMutability": "nonpayable",
      "type": "constructor"
    },
    {
      "inputs": [
        {
          "internalType": "address",
          "name": "have",
          "type": "address"
        },
        {
          "internalType": "contract VRFCoordinatorV2Interface",
          "name": "want",
          "type": "address"
        }
      ],
      "name": "OnlyCoordinatorCanFulfill",
      "type": "error"
    },
    {
      "anonymous": false,
      "inputs": [
        {
          "indexed": true,
          "internalType": "address",
          "name": "previousOwner",
          "type": "address"
        },
        {
          "indexed": true,
          "internalType": "address",
          "name": "newOwner",
          "type": "address"
        }
      ],
      "name": "OwnershipTransferred",
      "type": "event"
    },
    {
      "anonymous": false,
      "inputs": [
        {
          "indexed": true,
          "internalType": "uint256",
          "name": "requestId",
          "type": "uint256"
        },
        {
          "indexed": false,
          "internalType": "uint256",
          "name": "len",
          "type": "uint256"
        },
        {
          "components": [
            {
              "internalType": "address",
              "name": "player",
              "type": "address"
            }
          ],
          "indexed": false,
          "internalType": "struct SpinGameUnoptimized.Spin[]",
          "name": "spins",
          "type": "tuple[]"
        }
      ],
      "name": "SpinsRequested",
      "type": "event"
    },
    {
      "anonymous": false,
      "inputs": [
        {
          "indexed": true,
          "internalType": "uint256",
          "name": "requestId",
          "type": "uint256"
        },
        {
          "indexed": false,
          "internalType": "uint256",
          "name": "len",
          "type": "uint256"
        },
        {
          "components": [
            {
              "internalType": "address",
              "name": "player",
              "type": "address"
            }
          ],
          "indexed": false,
          "internalType": "struct SpinGameUnoptimized.Spin[]",
          "name": "spins",
          "type": "tuple[]"
        },
        {
          "indexed": false,
          "internalType": "uint256[]",
          "name": "randomWords",
          "type": "uint256[]"
        }
      ],
      "name": "SpinsSucceeded",
      "type": "event"
    },
    {
      "inputs": [],
      "name": "LINK",
      "outputs": [
        {
          "internalType": "contract LinkTokenInterface",
          "name": "",
          "type": "address"
        }
      ],
      "stateMutability": "view",
      "type": "function"
    },
    {
      "inputs": [
        {
          "internalType": "address",
          "name": "_toAdd",
          "type": "address"
        }
      ],
      "name": "addAuthorized",
      "outputs": [],
      "stateMutability": "nonpayable",
      "type": "function"
    },
    {
      "inputs": [
        {
          "internalType": "address",
          "name": "",
          "type": "address"
        }
      ],
      "name": "authorized",
      "outputs": [
        {
          "internalType": "bool",
          "name": "",
          "type": "bool"
        }
      ],
      "stateMutability": "view",
      "type": "function"
    },
    {
      "inputs": [
        {
          "components": [
            {
              "internalType": "address",
              "name": "player",
              "type": "address"
            }
          ],
          "internalType": "struct SpinGameUnoptimized.Spin[][]",
          "name": "spinsBatch",
          "type": "tuple[][]"
        }
      ],
      "name": "batchSpinOnBehalfOf",
      "outputs": [
        {
          "internalType": "uint256[]",
          "name": "",
          "type": "uint256[]"
        }
      ],
      "stateMutability": "nonpayable",
      "type": "function"
    },
    {
      "inputs": [],
      "name": "callbackGasLimit",
      "outputs": [
        {
          "internalType": "uint32",
          "name": "",
          "type": "uint32"
        }
      ],
      "stateMutability": "view",
      "type": "function"
    },
    {
      "inputs": [],
      "name": "keyHash",
      "outputs": [
        {
          "internalType": "bytes32",
          "name": "",
          "type": "bytes32"
        }
      ],
      "stateMutability": "view",
      "type": "function"
    },
    {
      "inputs": [],
      "name": "maxRequestType",
      "outputs": [
        {
          "internalType": "uint256",
          "name": "",
          "type": "uint256"
        }
      ],
      "stateMutability": "view",
      "type": "function"
    },
    {
      "inputs": [],
      "name": "owner",
      "outputs": [
        {
          "internalType": "address",
          "name": "",
          "type": "address"
        }
      ],
      "stateMutability": "view",
      "type": "function"
    },
    {
      "inputs": [
        {
          "internalType": "uint256",
          "name": "requestId",
          "type": "uint256"
        },
        {
          "internalType": "uint256[]",
          "name": "randomWords",
          "type": "uint256[]"
        }
      ],
      "name": "rawFulfillRandomWords",
      "outputs": [],
      "stateMutability": "nonpayable",
      "type": "function"
    },
    {
      "inputs": [
        {
          "internalType": "address",
          "name": "_toRemove",
          "type": "address"
        }
      ],
      "name": "removeAuthorized",
      "outputs": [],
      "stateMutability": "nonpayable",
      "type": "function"
    },
    {
      "inputs": [],
      "name": "renounceOwnership",
      "outputs": [],
      "stateMutability": "nonpayable",
      "type": "function"
    },
    {
      "inputs": [],
      "name": "requestConfirmations",
      "outputs": [
        {
          "internalType": "uint16",
          "name": "",
          "type": "uint16"
        }
      ],
      "stateMutability": "view",
      "type": "function"
    },
    {
      "inputs": [
        {
          "internalType": "uint32",
          "name": "gas",
          "type": "uint32"
        },
        {
          "internalType": "uint16",
          "name": "confirmations",
          "type": "uint16"
        },
        {
          "internalType": "uint64",
          "name": "subscription",
          "type": "uint64"
        },
        {
          "internalType": "bytes32",
          "name": "key",
          "type": "bytes32"
        },
        {
          "internalType": "bool",
          "name": "subscribe",
          "type": "bool"
        }
      ],
      "name": "setVrfSettings",
      "outputs": [],
      "stateMutability": "nonpayable",
      "type": "function"
    },
    {
      "inputs": [
        {
          "components": [
            {
              "internalType": "address",
              "name": "player",
              "type": "address"
            }
          ],
          "internalType": "struct SpinGameUnoptimized.Spin[]",
          "name": "spins",
          "type": "tuple[]"
        }
      ],
      "name": "spinOnBehalfOf",
      "outputs": [
        {
          "internalType": "uint256",
          "name": "requestId",
          "type": "uint256"
        }
      ],
      "stateMutability": "nonpayable",
      "type": "function"
    },
    {
      "inputs": [],
      "name": "subscriptionId",
      "outputs": [
        {
          "internalType": "uint64",
          "name": "",
          "type": "uint64"
        }
      ],
      "stateMutability": "view",
      "type": "function"
    },
    {
      "inputs": [
        {
          "internalType": "address",
          "name": "newOwner",
          "type": "address"
        }
      ],
      "name": "transferOwnership",
      "outputs": [],
      "stateMutability": "nonpayable",
      "type": "function"
    },
    {
      "inputs": [],
      "name": "useSubscription",
      "outputs": [
        {
          "internalType": "bool",
          "name": "",
          "type": "bool"
        }
      ],
      "stateMutability": "view",
      "type": "function"
    },
    {
      "inputs": [],
      "name": "vrfCoordinator",
      "outputs": [
        {
          "internalType": "contract VRFCoordinatorV2Interface",
          "name": "",
          "type": "address"
        }
      ],
      "stateMutability": "view",
      "type": "function"
    },
    {
      "inputs": [
        {
          "internalType": "uint256",
          "name": "requestId",
          "type": "uint256"
        }
      ],
      "name": "vrfRequest",
      "outputs": [
        {
          "components": [
            {
              "internalType": "uint256",
              "name": "requestType",
              "type": "uint256"
            },
            {
              "internalType": "uint256",
              "name": "paid",
              "type": "uint256"
            },
            {
              "internalType": "bool",
              "name": "fulfilled",
              "type": "bool"
            },
            {
              "internalType": "uint256[]",
              "name": "randomWords",
              "type": "uint256[]"
            },
            {
              "internalType": "bytes",
              "name": "parameters",
              "type": "bytes"
            }
          ],
          "internalType": "struct SpinGameUnoptimized.RequestStatus",
          "name": "",
          "type": "tuple"
        }
      ],
      "stateMutability": "view",
      "type": "function"
    },
    {
      "inputs": [],
      "name": "vrfWrapper",
      "outputs": [
        {
          "internalType": "contract VRFV2WrapperInterface",
          "name": "",
          "type": "address"
        }
      ],
      "stateMutability": "view",
      "type": "function"
    },
    {
      "inputs": [
        {
          "internalType": "uint256",
          "name": "amount",
          "type": "uint256"
        }
      ],
      "name": "withdrawLink",
      "outputs": [],
      "stateMutability": "nonpayable",
      "type": "function"
    },
    {
      "inputs": [],
      "name": "withdrawLink",
      "outputs": [],
      "stateMutability": "nonpayable",
      "type": "function"
    }
  ],
  "bytecode": "0x60e06040523480156200001157600080fd5b50604051620020803803806200208083398101604081905262000034916200014e565b6200003f33620000cf565b6001600160a01b0397881660805295871660a0529390951660c05260058054600380546001600160401b0319166001600160401b039098169790971790965560049390935563ffffffff9190911665ffffffffffff199094169390931764010000000061ffff909416939093029290921760ff60301b191666010000000000009115159190910217905562000218565b600080546001600160a01b038381166001600160a01b0319831681178455604051919092169283917f8be0079c531659141344cd1fd0a4f28419497f9722a3daafe3b4186f6b6457e09190a35050565b6001600160a01b03811681146200013557600080fd5b50565b805180151581146200014957600080fd5b919050565b600080600080600080600080610100898b0312156200016c57600080fd5b885162000179816200011f565b60208a01519098506200018c816200011f565b60408a01519097506200019f816200011f565b60608a015190965063ffffffff81168114620001ba57600080fd5b60808a015190955061ffff81168114620001d357600080fd5b60a08a01519094506001600160401b0381168114620001f157600080fd5b60c08a015190935091506200020960e08a0162000138565b90509295985092959890939650565b60805160a05160c051611df96200028760003960008181610192015281816105e6015281816106cc0152611307015260008181610295015281816103ab015281816103ed015261154e0152600081816102550152818161113b0152818161133101526114630152611df96000f3fe608060405234801561001057600080fd5b50600436106101425760003560e01c80638da5cb5b116100b8578063b0fb162f1161007c578063b0fb162f146102ea578063b918161114610313578063c3bc9c6a14610346578063cf1c316a14610366578063d5318a6714610379578063f2fde38b1461038d57600080fd5b80638da5cb5b146102775780638dc654a214610288578063a3e56fa814610290578063a4a82c04146102b7578063a6ea383f146102d757600080fd5b8063485d7d941161010a578063485d7d94146102065780635a18e9c71461021957806361728f391461022c578063715018a6146102355780637a8042bd1461023d57806383bbf9421461025057600080fd5b806309c1ba2e14610147578063188255a2146101775780631b6b6d231461018d5780631fe543e3146101cc57806324f74697146101e1575b600080fd5b60035461015a906001600160401b031681565b6040516001600160401b0390911681526020015b60405180910390f35b61017f600181565b60405190815260200161016e565b6101b47f000000000000000000000000000000000000000000000000000000000000000081565b6040516001600160a01b03909116815260200161016e565b6101df6101da366004611712565b6103a0565b005b6005546101f19063ffffffff1681565b60405163ffffffff909116815260200161016e565b6101df6102143660046117c8565b61042d565b61017f61022736600461188d565b61046c565b61017f60045481565b6101df6105ae565b6101df61024b3660046118c9565b6105c2565b6101b47f000000000000000000000000000000000000000000000000000000000000000081565b6000546001600160a01b03166101b4565b6101df6106af565b6101b47f000000000000000000000000000000000000000000000000000000000000000081565b6102ca6102c53660046118e2565b610818565b60405161016e91906119cd565b6101df6102e53660046119ee565b610946565b60055461030090640100000000900461ffff1681565b60405161ffff909116815260200161016e565b6103366103213660046117c8565b60016020526000908152604090205460ff1681565b604051901515815260200161016e565b6103596103543660046118c9565b6109c0565b60405161016e9190611abf565b6101df6103743660046117c8565b610b17565b60055461033690600160301b900460ff1681565b6101df61039b3660046117c8565b610b46565b336001600160a01b037f0000000000000000000000000000000000000000000000000000000000000000161461041f5760405163073e64fd60e21b81523360048201526001600160a01b037f00000000000000000000000000000000000000000000000000000000000000001660248201526044015b60405180910390fd5b6104298282610bbc565b5050565b610435610dd3565b6001600160a01b03811633141561044b57600080fd5b6001600160a01b03166000908152600160205260409020805460ff19169055565b3360009081526001602052604081205460ff16806104a35750336104986000546001600160a01b031690565b6001600160a01b0316145b6104eb5760405162461bcd60e51b815260206004820152601960248201527821b0b63632b91034b9903737ba1030baba3437b934bd32b21760391b6044820152606401610416565b815163ffffffff8111156105415760405162461bcd60e51b815260206004820152601760248201527f5370696e206f766572666c6f772064657465637465642e0000000000000000006044820152606401610416565b61056c600082856040516020016105589190611b8a565b604051602081830303815290604052610e2d565b9150817f1e50c2cd7a0566fc407918f911ff07fb39347cfd9bcebbdfc0b2f42c3d57177682856040516105a0929190611b9d565b60405180910390a250919050565b6105b6610dd3565b6105c0600061107c565b565b6105ca610dd3565b60405163a9059cbb60e01b8152336004820152602481018290527f00000000000000000000000000000000000000000000000000000000000000006001600160a01b03169063a9059cbb90604401602060405180830381600087803b15801561063257600080fd5b505af1158015610646573d6000803e3d6000fd5b505050506040513d601f19601f8201168201806040525081019061066a9190611bb6565b6106ac5760405162461bcd60e51b81526020600482015260136024820152722ab730b13632903a37903a3930b739b332b91760691b6044820152606401610416565b50565b6106b7610dd3565b6040516370a0823160e01b81523060048201527f00000000000000000000000000000000000000000000000000000000000000006001600160a01b03169063a9059cbb90339083906370a082319060240160206040518083038186803b15801561072057600080fd5b505afa158015610734573d6000803e3d6000fd5b505050506040513d601f19601f820116820180604052508101906107589190611bd3565b6040516001600160e01b031960e085901b1681526001600160a01b0390921660048301526024820152604401602060405180830381600087803b15801561079e57600080fd5b505af11580156107b2573d6000803e3d6000fd5b505050506040513d601f19601f820116820180604052508101906107d69190611bb6565b6105c05760405162461bcd60e51b81526020600482015260136024820152722ab730b13632903a37903a3930b739b332b91760691b6044820152606401610416565b3360009081526001602052604090205460609060ff16806108525750336108476000546001600160a01b031690565b6001600160a01b0316145b61089a5760405162461bcd60e51b815260206004820152601960248201527821b0b63632b91034b9903737ba1030baba3437b934bd32b21760391b6044820152606401610416565b81516000816001600160401b038111156108b6576108b6611681565b6040519080825280602002602001820160405280156108df578160200160208202803683370190505b50905060005b8281101561093e5761090f85828151811061090257610902611bec565b602002602001015161046c565b82828151811061092157610921611bec565b6020908102919091010152610937600182611c02565b90506108e5565b509392505050565b61094e610dd3565b60058054600380546001600160401b0390961667ffffffffffffffff19909616959095179094556004929092551515600160301b0266ff0000000000001961ffff9094166401000000000265ffffffffffff1990931663ffffffff909516949094179190911791909116919091179055565b6109f46040518060a00160405280600081526020016000815260200160001515815260200160608152602001606081525090565b600082815260026020818152604092839020835160a081018552815481526001820154818401529281015460ff16151583850152600381018054855181850281018501909652808652939491936060860193830182828015610a7557602002820191906000526020600020905b815481526020019060010190808311610a61575b50505050508152602001600482018054610a8e90611c28565b80601f0160208091040260200160405190810160405280929190818152602001828054610aba90611c28565b8015610b075780601f10610adc57610100808354040283529160200191610b07565b820191906000526020600020905b815481529060010190602001808311610aea57829003601f168201915b5050505050815250509050919050565b610b1f610dd3565b6001600160a01b03166000908152600160208190526040909120805460ff19169091179055565b610b4e610dd3565b6001600160a01b038116610bb35760405162461bcd60e51b815260206004820152602660248201527f4f776e61626c653a206e6577206f776e657220697320746865207a65726f206160448201526564647265737360d01b6064820152608401610416565b6106ac8161107c565b60008281526002602052604090206001015415801590610bef57506000828152600260208190526040909120015460ff16155b610c345760405162461bcd60e51b81526020600482015260166024820152752932b8bab2b9ba103737ba1030bb30b4b630b136329760511b6044820152606401610416565b6000828152600260208181526040909220908101805460ff191660011790558251610c67926003909201918401906115ae565b5060008281526002602052604081206004018054610c8490611c28565b80601f0160208091040260200160405190810160405280929190818152602001828054610cb090611c28565b8015610cfd5780601f10610cd257610100808354040283529160200191610cfd565b820191906000526020600020905b815481529060010190602001808311610ce057829003601f168201915b5050505050806020019051810190610d159190611c63565b80518351919250908114610d915760405162461bcd60e51b815260206004820152603b60248201527f4e756d626572206f66207370696e73206e6f7420657175616c20746f206e756d60448201527f626572206f6620776f7264732e2046697820636f6e74726163742100000000006064820152608401610416565b837f2e765e8cbe36aee8547f040a76f432d25b74a1f116607009d58493747f086454828486604051610dc593929190611d0b565b60405180910390a250505050565b6000546001600160a01b031633146105c05760405162461bcd60e51b815260206004820181905260248201527f4f776e61626c653a2063616c6c6572206973206e6f7420746865206f776e65726044820152606401610416565b600046617a691415611046576040805160a081018252858152600160208083019182526000838501818152855182815280840190965260608501958652608085018890528180526002835284517fac33ff75c19e70fe83507db0d683fd3465c996598dc972688b7ace676c89077b90815593517fac33ff75c19e70fe83507db0d683fd3465c996598dc972688b7ace676c89077c55517fac33ff75c19e70fe83507db0d683fd3465c996598dc972688b7ace676c89077d805460ff191691151591909117905593518051610f24927fac33ff75c19e70fe83507db0d683fd3465c996598dc972688b7ace676c89077e9201906115ae565b5060808201518051610f409160048401916020909101906115f9565b5090505060008463ffffffff166001600160401b03811115610f6457610f64611681565b604051908082528060200260200182016040528015610f8d578160200160208202803683370190505b50805160408051446020808301919091524282840152825180830384018152606090920190925280519101209192509060005b8281101561102f57604080516020810184905244918101919091524260608201526080016040516020818303038152906040528051906020012060001c91508184828151811061101257611012611bec565b6020908102919091010152611028600182611c02565b9050610fc0565b5061103a8484610bbc565b83945050505050611075565b600554600160301b900460ff16611067576110628484846110cc565b611072565b611072848484611278565b90505b9392505050565b600080546001600160a01b038381166001600160a01b0319831681178455604051919092169283917f8be0079c531659141344cd1fd0a4f28419497f9722a3daafe3b4186f6b6457e09190a35050565b6000808363ffffffff161180156110e35750600184105b6110ff5760405162461bcd60e51b815260040161041690611d40565b611108836112dd565b6040805160a08101825286815260055491516310c1b4d560e21b815263ffffffff909216600483015291925060208201907f00000000000000000000000000000000000000000000000000000000000000006001600160a01b031690634306d3549060240160206040518083038186803b15801561118557600080fd5b505afa158015611199573d6000803e3d6000fd5b505050506040513d601f19601f820116820180604052508101906111bd9190611bd3565b81526000602082018190526040909101905b6040519080825280602002602001820160405280156111f8578160200160208202803683370190505b5081526020908101849052600083815260028083526040918290208451815584840151600182015591840151908201805460ff1916911515919091179055606083015180519192611251926003850192909101906115ae565b506080820151805161126d9160048401916020909101906115f9565b509050509392505050565b6000808363ffffffff1611801561128f5750600184105b6112ab5760405162461bcd60e51b815260040161041690611d40565b6112b4836114f8565b6040805160a08101825286815260016020820152600091810182905291925060608201906111cf565b6005546040516310c1b4d560e21b815263ffffffff90911660048201526000906001600160a01b037f0000000000000000000000000000000000000000000000000000000000000000811691634000aea0917f00000000000000000000000000000000000000000000000000000000000000009190821690634306d3549060240160206040518083038186803b15801561137657600080fd5b505afa15801561138a573d6000803e3d6000fd5b505050506040513d601f19601f820116820180604052508101906113ae9190611bd3565b6005546040805163ffffffff808416602083015264010000000090930461ffff169181019190915290871660608201526080016040516020818303038152906040526040518463ffffffff1660e01b815260040161140e93929190611d93565b602060405180830381600087803b15801561142857600080fd5b505af115801561143c573d6000803e3d6000fd5b505050506040513d601f19601f820116820180604052508101906114609190611bb6565b507f00000000000000000000000000000000000000000000000000000000000000006001600160a01b031663fc2a88c36040518163ffffffff1660e01b815260040160206040518083038186803b1580156114ba57600080fd5b505afa1580156114ce573d6000803e3d6000fd5b505050506040513d601f19601f820116820180604052508101906114f29190611bd3565b92915050565b600480546003546005546040516305d3b1d360e41b8152938401929092526001600160401b03166024830152640100000000810461ffff16604483015263ffffffff9081166064830152821660848201526000907f00000000000000000000000000000000000000000000000000000000000000006001600160a01b031690635d3b1d309060a401602060405180830381600087803b15801561159a57600080fd5b505af11580156114ce573d6000803e3d6000fd5b8280548282559060005260206000209081019282156115e9579160200282015b828111156115e95782518255916020019190600101906115ce565b506115f592915061166c565b5090565b82805461160590611c28565b90600052602060002090601f01602090048101928261162757600085556115e9565b82601f1061164057805160ff19168380011785556115e9565b828001600101855582156115e957918201828111156115e95782518255916020019190600101906115ce565b5b808211156115f5576000815560010161166d565b634e487b7160e01b600052604160045260246000fd5b604051602081016001600160401b03811182821017156116b9576116b9611681565b60405290565b604051601f8201601f191681016001600160401b03811182821017156116e7576116e7611681565b604052919050565b60006001600160401b0382111561170857611708611681565b5060051b60200190565b6000806040838503121561172557600080fd5b823591506020808401356001600160401b0381111561174357600080fd5b8401601f8101861361175457600080fd5b8035611767611762826116ef565b6116bf565b81815260059190911b8201830190838101908883111561178657600080fd5b928401925b828410156117a45783358252928401929084019061178b565b80955050505050509250929050565b6001600160a01b03811681146106ac57600080fd5b6000602082840312156117da57600080fd5b8135611075816117b3565b600082601f8301126117f657600080fd5b81356020611806611762836116ef565b82815260059290921b8401810191818101908684111561182557600080fd5b8286015b84811015611882578381890312156118415760008081fd5b604080518581018181106001600160401b038211171561186357611863611681565b909152813590611872826117b3565b9081528352918301918301611829565b509695505050505050565b60006020828403121561189f57600080fd5b81356001600160401b038111156118b557600080fd5b6118c1848285016117e5565b949350505050565b6000602082840312156118db57600080fd5b5035919050565b600060208083850312156118f557600080fd5b82356001600160401b038082111561190c57600080fd5b818501915085601f83011261192057600080fd5b813561192e611762826116ef565b81815260059190911b8301840190848101908883111561194d57600080fd5b8585015b83811015611985578035858111156119695760008081fd5b6119778b89838a01016117e5565b845250918601918601611951565b5098975050505050505050565b600081518084526020808501945080840160005b838110156119c2578151875295820195908201906001016119a6565b509495945050505050565b6020815260006110756020830184611992565b80151581146106ac57600080fd5b600080600080600060a08688031215611a0657600080fd5b853563ffffffff81168114611a1a57600080fd5b9450602086013561ffff81168114611a3157600080fd5b935060408601356001600160401b0381168114611a4d57600080fd5b9250606086013591506080860135611a64816119e0565b809150509295509295909350565b6000815180845260005b81811015611a9857602081850181015186830182015201611a7c565b81811115611aaa576000602083870101525b50601f01601f19169290920160200192915050565b6000602080835260c08301845182850152818501516040850152604085015115156060850152606085015160a0608086015281815180845260e0870191508483019350600092505b80831015611b275783518252928401926001929092019190840190611b07565b506080870151868203601f190160a08801529350611b458185611a72565b979650505050505050565b600081518084526020808501945080840160005b838110156119c2578151516001600160a01b031687529582019590820190600101611b64565b6020815260006110756020830184611b50565b8281526040602082015260006110726040830184611b50565b600060208284031215611bc857600080fd5b8151611075816119e0565b600060208284031215611be557600080fd5b5051919050565b634e487b7160e01b600052603260045260246000fd5b60008219821115611c2357634e487b7160e01b600052601160045260246000fd5b500190565b600181811c90821680611c3c57607f821691505b60208210811415611c5d57634e487b7160e01b600052602260045260246000fd5b50919050565b60006020808385031215611c7657600080fd5b82516001600160401b03811115611c8c57600080fd5b8301601f81018513611c9d57600080fd5b8051611cab611762826116ef565b81815260059190911b82018301908381019087831115611cca57600080fd5b928401925b82841015611b4557848489031215611ce75760008081fd5b611cef611697565b8451611cfa816117b3565b815282529284019290840190611ccf565b838152606060208201526000611d246060830185611b50565b8281036040840152611d368185611992565b9695505050505050565b60208082526033908201527f6e756d576f726473206d757374206265203e203020616e6420726571756573746040820152722a3cb8329036bab9ba103132903b30b634b21760691b606082015260800190565b60018060a01b0384168152826020820152606060408201526000611dba6060830184611a72565b9594505050505056fea2646970667358221220db12afe208db34471f00034c982d3e9a98a67f17ac1d405c351478cfdd17bcbd64736f6c63430008090033",
  "linkReferences": {},
  "deployedLinkReferences": {}
}