{
  "_format": "hh-sol-artifact-1",
  "contractName": "AuthorizableUpgradeable",
  "sourceName": "contracts/SpinGameUpgradeable.sol",
  "abi": [
    {
      "anonymous": false,
      "inputs": [
        {
          "indexed": false,
          "internalType": "uint8",
          "name": "version",
          "type": "uint8"
        }
      ],
      "name": "Initialized",
      "type": "event"
    },
    {
      "anonymous": false,
      "inputs": [
        {
          "indexed": true,
          "internalType": "address",
          "name": "previousOwner",
          "type": "address"
        },
        {
          "indexed": true,
          "internalType": "address",
          "name": "newOwner",
          "type": "address"
        }
      ],
      "name": "OwnershipTransferred",
      "type": "event"
    },
    {
      "inputs": [
        {
          "internalType": "address",
          "name": "_toAdd",
          "type": "address"
        }
      ],
      "name": "addAuthorized",
      "outputs": [],
      "stateMutability": "nonpayable",
      "type": "function"
    },
    {
      "inputs": [
        {
          "internalType": "address",
          "name": "",
          "type": "address"
        }
      ],
      "name": "authorized",
      "outputs": [
        {
          "internalType": "bool",
          "name": "",
          "type": "bool"
        }
      ],
      "stateMutability": "view",
      "type": "function"
    },
    {
      "inputs": [],
      "name": "owner",
      "outputs": [
        {
          "internalType": "address",
          "name": "",
          "type": "address"
        }
      ],
      "stateMutability": "view",
      "type": "function"
    },
    {
      "inputs": [
        {
          "internalType": "address",
          "name": "_toRemove",
          "type": "address"
        }
      ],
      "name": "removeAuthorized",
      "outputs": [],
      "stateMutability": "nonpayable",
      "type": "function"
    },
    {
      "inputs": [],
      "name": "renounceOwnership",
      "outputs": [],
      "stateMutability": "nonpayable",
      "type": "function"
    },
    {
      "inputs": [
        {
          "internalType": "address",
          "name": "newOwner",
          "type": "address"
        }
      ],
      "name": "transferOwnership",
      "outputs": [],
      "stateMutability": "nonpayable",
      "type": "function"
    }
  ],
  "bytecode": "0x608060405234801561001057600080fd5b5061030c806100206000396000f3fe608060405234801561001057600080fd5b50600436106100625760003560e01c8063485d7d9414610067578063715018a61461007c5780638da5cb5b14610084578063b9181611146100a4578063cf1c316a146100d7578063f2fde38b146100ea575b600080fd5b61007a6100753660046102a6565b6100fd565b005b61007a61013c565b6033546040516001600160a01b0390911681526020015b60405180910390f35b6100c76100b23660046102a6565b60656020526000908152604090205460ff1681565b604051901515815260200161009b565b61007a6100e53660046102a6565b610150565b61007a6100f83660046102a6565b61017c565b6101056101fa565b6001600160a01b03811633141561011b57600080fd5b6001600160a01b03166000908152606560205260409020805460ff19169055565b6101446101fa565b61014e6000610254565b565b6101586101fa565b6001600160a01b03166000908152606560205260409020805460ff19166001179055565b6101846101fa565b6001600160a01b0381166101ee5760405162461bcd60e51b815260206004820152602660248201527f4f776e61626c653a206e6577206f776e657220697320746865207a65726f206160448201526564647265737360d01b60648201526084015b60405180910390fd5b6101f781610254565b50565b6033546001600160a01b0316331461014e5760405162461bcd60e51b815260206004820181905260248201527f4f776e61626c653a2063616c6c6572206973206e6f7420746865206f776e657260448201526064016101e5565b603380546001600160a01b038381166001600160a01b0319831681179093556040519116919082907f8be0079c531659141344cd1fd0a4f28419497f9722a3daafe3b4186f6b6457e090600090a35050565b6000602082840312156102b857600080fd5b81356001600160a01b03811681146102cf57600080fd5b939250505056fea2646970667358221220b9364f170254af569db605fa7d39aff844c80ea68deedb515faed02a6b1970c664736f6c63430008090033",
  "linkReferences": {},
  "deployedLinkReferences": {}
}