{
  "_format": "hh-sol-artifact-1",
  "contractName": "SpinGameUpgradeable",
  "sourceName": "contracts/SpinGameUpgradeable.sol",
  "abi": [
    {
      "anonymous": false,
      "inputs": [
        {
          "indexed": false,
          "internalType": "uint8",
          "name": "version",
          "type": "uint8"
        }
      ],
      "name": "Initialized",
      "type": "event"
    },
    {
      "anonymous": false,
      "inputs": [
        {
          "indexed": true,
          "internalType": "address",
          "name": "previousOwner",
          "type": "address"
        },
        {
          "indexed": true,
          "internalType": "address",
          "name": "newOwner",
          "type": "address"
        }
      ],
      "name": "OwnershipTransferred",
      "type": "event"
    },
    {
      "anonymous": false,
      "inputs": [
        {
          "indexed": true,
          "internalType": "uint256",
          "name": "requestId",
          "type": "uint256"
        },
        {
          "indexed": false,
          "internalType": "uint256",
          "name": "len",
          "type": "uint256"
        },
        {
          "components": [
            {
              "internalType": "address",
              "name": "player",
              "type": "address"
            }
          ],
          "indexed": false,
          "internalType": "struct SpinGameUpgradeable.Spin[]",
          "name": "spins",
          "type": "tuple[]"
        }
      ],
      "name": "SpinsRequested",
      "type": "event"
    },
    {
      "anonymous": false,
      "inputs": [
        {
          "indexed": true,
          "internalType": "uint256",
          "name": "requestId",
          "type": "uint256"
        },
        {
          "indexed": false,
          "internalType": "uint256",
          "name": "len",
          "type": "uint256"
        },
        {
          "components": [
            {
              "internalType": "address",
              "name": "player",
              "type": "address"
            }
          ],
          "indexed": false,
          "internalType": "struct SpinGameUpgradeable.Spin[]",
          "name": "spins",
          "type": "tuple[]"
        },
        {
          "indexed": false,
          "internalType": "uint256[]",
          "name": "randomWords",
          "type": "uint256[]"
        }
      ],
      "name": "SpinsSucceeded",
      "type": "event"
    },
    {
      "inputs": [
        {
          "internalType": "address",
          "name": "_toAdd",
          "type": "address"
        }
      ],
      "name": "addAuthorized",
      "outputs": [],
      "stateMutability": "nonpayable",
      "type": "function"
    },
    {
      "inputs": [
        {
          "internalType": "address",
          "name": "",
          "type": "address"
        }
      ],
      "name": "authorized",
      "outputs": [
        {
          "internalType": "bool",
          "name": "",
          "type": "bool"
        }
      ],
      "stateMutability": "view",
      "type": "function"
    },
    {
      "inputs": [
        {
          "components": [
            {
              "internalType": "address",
              "name": "player",
              "type": "address"
            }
          ],
          "internalType": "struct SpinGameUpgradeable.Spin[][]",
          "name": "spinsBatch",
          "type": "tuple[][]"
        }
      ],
      "name": "batchSpinOnBehalfOf",
      "outputs": [
        {
          "internalType": "uint256[]",
          "name": "",
          "type": "uint256[]"
        }
      ],
      "stateMutability": "nonpayable",
      "type": "function"
    },
    {
      "inputs": [
        {
          "internalType": "contract VRFV2WrapperInterface",
          "name": "_vrfWrapper",
          "type": "address"
        },
        {
          "internalType": "contract VRFCoordinatorV2Interface",
          "name": "_vrfCoordinator",
          "type": "address"
        },
        {
          "internalType": "contract LinkTokenInterface",
          "name": "link",
          "type": "address"
        },
        {
          "internalType": "uint32",
          "name": "_callbackGasLimit",
          "type": "uint32"
        },
        {
          "internalType": "uint16",
          "name": "_requestConfirmations",
          "type": "uint16"
        },
        {
          "internalType": "uint64",
          "name": "_subscriptionId",
          "type": "uint64"
        },
        {
          "internalType": "bytes32",
          "name": "_keyHash",
          "type": "bytes32"
        },
        {
          "internalType": "bool",
          "name": "_useSubscription",
          "type": "bool"
        }
      ],
      "name": "initialize",
      "outputs": [],
      "stateMutability": "nonpayable",
      "type": "function"
    },
    {
      "inputs": [],
      "name": "maxRequestType",
      "outputs": [
        {
          "internalType": "uint256",
          "name": "",
          "type": "uint256"
        }
      ],
      "stateMutability": "view",
      "type": "function"
    },
    {
      "inputs": [],
      "name": "owner",
      "outputs": [
        {
          "internalType": "address",
          "name": "",
          "type": "address"
        }
      ],
      "stateMutability": "view",
      "type": "function"
    },
    {
      "inputs": [
        {
          "internalType": "address",
          "name": "_toRemove",
          "type": "address"
        }
      ],
      "name": "removeAuthorized",
      "outputs": [],
      "stateMutability": "nonpayable",
      "type": "function"
    },
    {
      "inputs": [],
      "name": "renounceOwnership",
      "outputs": [],
      "stateMutability": "nonpayable",
      "type": "function"
    },
    {
      "inputs": [
        {
          "internalType": "uint32",
          "name": "gas",
          "type": "uint32"
        },
        {
          "internalType": "uint16",
          "name": "confirmations",
          "type": "uint16"
        },
        {
          "internalType": "uint64",
          "name": "subscription",
          "type": "uint64"
        },
        {
          "internalType": "bytes32",
          "name": "key",
          "type": "bytes32"
        },
        {
          "internalType": "bool",
          "name": "subscribe",
          "type": "bool"
        }
      ],
      "name": "setVrfSettings",
      "outputs": [],
      "stateMutability": "nonpayable",
      "type": "function"
    },
    {
      "inputs": [
        {
          "components": [
            {
              "internalType": "address",
              "name": "player",
              "type": "address"
            }
          ],
          "internalType": "struct SpinGameUpgradeable.Spin[]",
          "name": "spins",
          "type": "tuple[]"
        }
      ],
      "name": "spinOnBehalfOf",
      "outputs": [
        {
          "internalType": "uint256",
          "name": "requestId",
          "type": "uint256"
        }
      ],
      "stateMutability": "nonpayable",
      "type": "function"
    },
    {
      "inputs": [
        {
          "internalType": "address",
          "name": "newOwner",
          "type": "address"
        }
      ],
      "name": "transferOwnership",
      "outputs": [],
      "stateMutability": "nonpayable",
      "type": "function"
    },
    {
      "inputs": [
        {
          "internalType": "uint256",
          "name": "",
          "type": "uint256"
        }
      ],
      "name": "vrfRequests",
      "outputs": [
        {
          "internalType": "uint256",
          "name": "requestType",
          "type": "uint256"
        },
        {
          "internalType": "uint256",
          "name": "paid",
          "type": "uint256"
        },
        {
          "internalType": "bool",
          "name": "fulfilled",
          "type": "bool"
        },
        {
          "internalType": "bytes",
          "name": "parameters",
          "type": "bytes"
        }
      ],
      "stateMutability": "view",
      "type": "function"
    },
    {
      "inputs": [
        {
          "internalType": "uint256",
          "name": "amount",
          "type": "uint256"
        }
      ],
      "name": "withdrawLink",
      "outputs": [],
      "stateMutability": "nonpayable",
      "type": "function"
    },
    {
      "inputs": [],
      "name": "withdrawLink",
      "outputs": [],
      "stateMutability": "nonpayable",
      "type": "function"
    }
  ],
  "bytecode": "0x608060405234801561001057600080fd5b5061185a806100206000396000f3fe608060405234801561001057600080fd5b50600436106100ea5760003560e01c80638dc654a21161008c578063b2eb66f211610066578063b2eb66f2146101c6578063b9181611146101d9578063cf1c316a1461020c578063f2fde38b1461021f57600080fd5b80638dc654a21461018b578063a4a82c0414610193578063a6ea383f146101b357600080fd5b80635a18e9c7116100c85780635a18e9c714610142578063715018a6146101555780637a8042bd1461015d5780638da5cb5b1461017057600080fd5b8063188255a2146100ef5780631a1d92521461010a578063485d7d941461012d575b600080fd5b6100f7600181565b6040519081526020015b60405180910390f35b61011d6101183660046111da565b610232565b6040516101019493929190611240565b61014061013b366004611286565b6102e9565b005b6100f76101503660046113c3565b610328565b61014061046f565b61014061016b3660046111da565b610483565b6033546040516001600160a01b039091168152602001610101565b610140610554565b6101a66101a13660046113f8565b6106a1565b60405161010191906114a9565b6101406101c1366004611539565b6107d2565b6101406101d436600461159b565b61085f565b6101fc6101e7366004611286565b60656020526000908152604090205460ff1681565b6040519015158152602001610101565b61014061021a366004611286565b6109d5565b61014061022d366004611286565b610a01565b60666020526000908152604090208054600182015460028301546004840180549394929360ff909216929161026690611635565b80601f016020809104026020016040519081016040528092919081815260200182805461029290611635565b80156102df5780601f106102b4576101008083540402835291602001916102df565b820191906000526020600020905b8154815290600101906020018083116102c257829003601f168201915b5050505050905084565b6102f1610a77565b6001600160a01b03811633141561030757600080fd5b6001600160a01b03166000908152606560205260409020805460ff19169055565b3360009081526065602052604081205460ff168061035f5750336103546033546001600160a01b031690565b6001600160a01b0316145b6103ac5760405162461bcd60e51b815260206004820152601960248201527821b0b63632b91034b9903737ba1030baba3437b934bd32b21760391b60448201526064015b60405180910390fd5b815163ffffffff8111156104025760405162461bcd60e51b815260206004820152601760248201527f5370696e206f766572666c6f772064657465637465642e00000000000000000060448201526064016103a3565b61042d6000828560405160200161041991906116b5565b604051602081830303815290604052610ad1565b9150817f1e50c2cd7a0566fc407918f911ff07fb39347cfd9bcebbdfc0b2f42c3d57177682856040516104619291906116c8565b60405180910390a250919050565b610477610a77565b6104816000610b08565b565b61048b610a77565b606a5460405163a9059cbb60e01b8152336004820152602481018390526001600160a01b039091169063a9059cbb90604401602060405180830381600087803b1580156104d757600080fd5b505af11580156104eb573d6000803e3d6000fd5b505050506040513d601f19601f8201168201806040525081019061050f91906116e1565b6105515760405162461bcd60e51b81526020600482015260136024820152722ab730b13632903a37903a3930b739b332b91760691b60448201526064016103a3565b50565b61055c610a77565b606a546040516370a0823160e01b81523060048201526001600160a01b039091169063a9059cbb90339083906370a082319060240160206040518083038186803b1580156105a957600080fd5b505afa1580156105bd573d6000803e3d6000fd5b505050506040513d601f19601f820116820180604052508101906105e191906116fe565b6040516001600160e01b031960e085901b1681526001600160a01b0390921660048301526024820152604401602060405180830381600087803b15801561062757600080fd5b505af115801561063b573d6000803e3d6000fd5b505050506040513d601f19601f8201168201806040525081019061065f91906116e1565b6104815760405162461bcd60e51b81526020600482015260136024820152722ab730b13632903a37903a3930b739b332b91760691b60448201526064016103a3565b3360009081526065602052604090205460609060ff16806106db5750336106d06033546001600160a01b031690565b6001600160a01b0316145b6107235760405162461bcd60e51b815260206004820152601960248201527821b0b63632b91034b9903737ba1030baba3437b934bd32b21760391b60448201526064016103a3565b815160008167ffffffffffffffff811115610740576107406112aa565b604051908082528060200260200182016040528015610769578160200160208202803683370190505b50905060005b828110156107c85761079985828151811061078c5761078c611717565b6020026020010151610328565b8282815181106107ab576107ab611717565b60209081029190910101526107c160018261172d565b905061076f565b509150505b919050565b6107da610a77565b606a80546068805467ffffffffffffffff60a01b1916600160a01b67ffffffffffffffff97909716870217905560699390935565ffffffffffff60a01b1990921663ffffffff9590951690920261ffff60c01b191693909317600160c01b61ffff93909316929092029190911760ff60d01b1916600160d01b91151591909102179055565b600054610100900460ff161580801561087f5750600054600160ff909116105b806108995750303b158015610899575060005460ff166001145b6108b55760405162461bcd60e51b81526004016103a390611753565b6000805460ff1916600117905580156108d8576000805461ff0019166101001790555b6108e0610b5a565b6108e8610bce565b606780546001600160a01b0319166001600160a01b038b81169190911790915560688054606a80548c85166001600160e01b031990931692909217600160a01b67ffffffffffffffff8a168102919091179093556069879055928a166001600160c01b03199091161763ffffffff89169091021762ffffff60c01b1916600160c01b61ffff88160260ff60d01b191617600160d01b8415150217905580156109ca576000805461ff0019169055604051600181527f7f26b83ff96e1f2b6a682f133852f6798a09c465da95921460cefb38474024989060200160405180910390a15b505050505050505050565b6109dd610a77565b6001600160a01b03166000908152606560205260409020805460ff19166001179055565b610a09610a77565b6001600160a01b038116610a6e5760405162461bcd60e51b815260206004820152602660248201527f4f776e61626c653a206e6577206f776e657220697320746865207a65726f206160448201526564647265737360d01b60648201526084016103a3565b61055181610b08565b6033546001600160a01b031633146104815760405162461bcd60e51b815260206004820181905260248201527f4f776e61626c653a2063616c6c6572206973206e6f7420746865206f776e657260448201526064016103a3565b606a54600090600160d01b900460ff16610af557610af0848484610c8f565b610b00565b610b00848484610e26565b949350505050565b603380546001600160a01b038381166001600160a01b0319831681179093556040519116919082907f8be0079c531659141344cd1fd0a4f28419497f9722a3daafe3b4186f6b6457e090600090a35050565b600054610100900460ff16610bc55760405162461bcd60e51b815260206004820152602b60248201527f496e697469616c697a61626c653a20636f6e7472616374206973206e6f74206960448201526a6e697469616c697a696e6760a81b60648201526084016103a3565b61048133610b08565b600054610100900460ff1615808015610bee5750600054600160ff909116105b80610c085750303b158015610c08575060005460ff166001145b610c245760405162461bcd60e51b81526004016103a390611753565b6000805460ff191660011790558015610c47576000805461ff0019166101001790555b8015610551576000805461ff0019169055604051600181527f7f26b83ff96e1f2b6a682f133852f6798a09c465da95921460cefb38474024989060200160405180910390a150565b6000808363ffffffff16118015610ca65750600184105b610cc25760405162461bcd60e51b81526004016103a3906117a1565b610ccb83610e8b565b6040805160a081018252868152606754606a5492516310c1b4d560e21b8152600160a01b90930463ffffffff1660048401529293509160208301916001600160a01b0390911690634306d3549060240160206040518083038186803b158015610d3357600080fd5b505afa158015610d47573d6000803e3d6000fd5b505050506040513d601f19601f82011682018060405250810190610d6b91906116fe565b81526000602082018190526040909101905b604051908082528060200260200182016040528015610da6578160200160208202803683370190505b5081526020908101849052600083815260668252604090819020835181558383015160018201559083015160028201805460ff1916911515919091179055606083015180519192610dff92600385019290910190611107565b5060808201518051610e1b916004840191602090910190611152565b509050509392505050565b6000808363ffffffff16118015610e3d5750600184105b610e595760405162461bcd60e51b81526004016103a3906117a1565b610e6283611068565b6040805160a0810182528681526001602082015260009181018290529192506060820190610d7d565b606a546067546040516310c1b4d560e21b8152600160a01b830463ffffffff1660048201526000926001600160a01b0390811692634000aea0929116908190634306d3549060240160206040518083038186803b158015610eeb57600080fd5b505afa158015610eff573d6000803e3d6000fd5b505050506040513d601f19601f82011682018060405250810190610f2391906116fe565b606a5460408051600160a01b830463ffffffff9081166020830152600160c01b90930461ffff169181019190915290871660608201526080016040516020818303038152906040526040518463ffffffff1660e01b8152600401610f89939291906117f4565b602060405180830381600087803b158015610fa357600080fd5b505af1158015610fb7573d6000803e3d6000fd5b505050506040513d601f19601f82011682018060405250810190610fdb91906116e1565b50606760009054906101000a90046001600160a01b03166001600160a01b031663fc2a88c36040518163ffffffff1660e01b815260040160206040518083038186803b15801561102a57600080fd5b505afa15801561103e573d6000803e3d6000fd5b505050506040513d601f19601f8201168201806040525081019061106291906116fe565b92915050565b606854606954606a546040516305d3b1d360e41b81526004810192909252600160a01b80840467ffffffffffffffff166024840152600160c01b820461ffff166044840152900463ffffffff9081166064830152831660848201526000916001600160a01b031690635d3b1d309060a401602060405180830381600087803b1580156110f357600080fd5b505af115801561103e573d6000803e3d6000fd5b828054828255906000526020600020908101928215611142579160200282015b82811115611142578251825591602001919060010190611127565b5061114e9291506111c5565b5090565b82805461115e90611635565b90600052602060002090601f0160209004810192826111805760008555611142565b82601f1061119957805160ff1916838001178555611142565b828001600101855582156111425791820182811115611142578251825591602001919060010190611127565b5b8082111561114e57600081556001016111c6565b6000602082840312156111ec57600080fd5b5035919050565b6000815180845260005b81811015611219576020818501810151868301820152016111fd565b8181111561122b576000602083870101525b50601f01601f19169290920160200192915050565b848152836020820152821515604082015260806060820152600061126760808301846111f3565b9695505050505050565b6001600160a01b038116811461055157600080fd5b60006020828403121561129857600080fd5b81356112a381611271565b9392505050565b634e487b7160e01b600052604160045260246000fd5b604051601f8201601f1916810167ffffffffffffffff811182821017156112e9576112e96112aa565b604052919050565b600067ffffffffffffffff82111561130b5761130b6112aa565b5060051b60200190565b600082601f83011261132657600080fd5b8135602061133b611336836112f1565b6112c0565b82815260059290921b8401810191818101908684111561135a57600080fd5b8286015b848110156113b8578381890312156113765760008081fd5b6040805185810181811067ffffffffffffffff82111715611399576113996112aa565b9091528135906113a882611271565b908152835291830191830161135e565b509695505050505050565b6000602082840312156113d557600080fd5b813567ffffffffffffffff8111156113ec57600080fd5b610b0084828501611315565b6000602080838503121561140b57600080fd5b823567ffffffffffffffff8082111561142357600080fd5b818501915085601f83011261143757600080fd5b8135611445611336826112f1565b81815260059190911b8301840190848101908883111561146457600080fd5b8585015b8381101561149c578035858111156114805760008081fd5b61148e8b89838a0101611315565b845250918601918601611468565b5098975050505050505050565b6020808252825182820181905260009190848201906040850190845b818110156114e1578351835292840192918401916001016114c5565b50909695505050505050565b803563ffffffff811681146107cd57600080fd5b803561ffff811681146107cd57600080fd5b803567ffffffffffffffff811681146107cd57600080fd5b801515811461055157600080fd5b600080600080600060a0868803121561155157600080fd5b61155a866114ed565b945061156860208701611501565b935061157660408701611513565b925060608601359150608086013561158d8161152b565b809150509295509295909350565b600080600080600080600080610100898b0312156115b857600080fd5b88356115c381611271565b975060208901356115d381611271565b965060408901356115e381611271565b95506115f160608a016114ed565b94506115ff60808a01611501565b935061160d60a08a01611513565b925060c0890135915060e08901356116248161152b565b809150509295985092959890939650565b600181811c9082168061164957607f821691505b6020821081141561166a57634e487b7160e01b600052602260045260246000fd5b50919050565b600081518084526020808501945080840160005b838110156116aa578151516001600160a01b031687529582019590820190600101611684565b509495945050505050565b6020815260006112a36020830184611670565b828152604060208201526000610b006040830184611670565b6000602082840312156116f357600080fd5b81516112a38161152b565b60006020828403121561171057600080fd5b5051919050565b634e487b7160e01b600052603260045260246000fd5b6000821982111561174e57634e487b7160e01b600052601160045260246000fd5b500190565b6020808252602e908201527f496e697469616c697a61626c653a20636f6e747261637420697320616c72656160408201526d191e481a5b9a5d1a585b1a5e995960921b606082015260800190565b60208082526033908201527f6e756d576f726473206d757374206265203e203020616e6420726571756573746040820152722a3cb8329036bab9ba103132903b30b634b21760691b606082015260800190565b60018060a01b038416815282602082015260606040820152600061181b60608301846111f3565b9594505050505056fea2646970667358221220082773dc479cbb19448a1c96d1559cece852d01549dd127110742a15c5b57c0164736f6c63430008090033",
  "linkReferences": {},
  "deployedLinkReferences": {}
}